:100000000C9434000C945A000C948C000C94510005
:100010000C9451000C9472000C9451000C948601C5
:100020000C9451000C9451000C9451000C9451000C
:100030000C9451000C9451000C9451000C945100FC
:100040000C9451000C9451000C9451000C945100EC
:100050000C9451000C9451000C9451000C945100DC
:100060000C9451000C94510011241FBECFEFD8E026
:10007000DEBFCDBF11E0A0E0B1E0E8E9F3E002C0EF
:1000800005900D92A030B107D9F721E0A0E0B1E0D2
:1000900001C01D92A730B207E1F70E945E010C94E7
:1000A000CA010C94000080E480937C0087E8809370
:1000B0007A0008951F920F920FB60F9211248F931A
:1000C000809101018F5F809301018091010189304E
:1000D00018F081E0809301018F910F900FBE0F9077
:1000E0001F9018951F920F920FB60F9211248F93A5
:1000F0004F990CC0809102018F5F80930201809123
:100100000201853018F081E0809302018F910F90F9
:100110000FBE0F901F9018951F920F920FB60F925F
:1001200011248F9381E0809300018F910F900FBE77
:100130000F901F9018958AB183778AB98BB18C681C
:100140008BB98DB383608DBBE9E6F0E080818A6076
:100150008083E8E6F0E0808184608083EDE6F0E073
:10016000808180688083089587B1866087B984B173
:10017000816084B988B1897F88B985B18E7F85B95E
:1001800008951092B90088E48093B80084E08093C9
:10019000BC00089584EA8093BC008091BC00882351
:1001A000E4F7089584E98093BC0008958093BB0030
:1001B00084E88093BC008091BC008823E4F7089514
:1001C000CF93C82F84600E94D60085E08A95F1F70E
:1001D00000008C2F8B7F0E94D60087EC90E0019767
:1001E000F1F700C00000CF910895CF9320E1829FE6
:1001F000C0011124C82FC8606111C1600E94CA00EB
:100200008EE40E94D6008C2F0E94D6008C2F0E9474
:10021000E0000E94D200CF910895CF93DF93C82FC2
:10022000D62F82958F700E94F5006D2F8C2F8F70C6
:100230000E94F500DF91CF91089560E081E00E9477
:100240000D018FE39FE10197F1F700C000000895D1
:100250000E94C1002FEF80E792E021508040904043
:10026000E1F700C0000060E083E00E94F5008FE14C
:100270009EE40197F1F700C0000060E083E00E9477
:10028000F5008FE891E00197F1F700C0000060E011
:1002900083E00E94F50060E082E00E94F50060E0EB
:1002A00088E20E940D0160E08CE00E940D0160E098
:1002B00086E00E940D010E941D0108950E945300D6
:1002C0000E946E010E94BE010E94AB010E942801A3
:1002D0000E94B4000E949B007894FFCF84B182609A
:1002E00084B9E0E8F0E0808182688083E1E8F0E0B2
:1002F00080818B61808387E893E19093870080936E
:100300008600109289001092880008951F920F9223
:100310000FB60F9211248F939F93AF93BF93809149
:10032000030190910401A0910501B091060101968D
:10033000A11DB11D8093030190930401A0930501B9
:10034000B0930601BF91AF919F918F910F900FBE17
:100350000F901F901895E0EBF0E080818260808321
:10036000E1EBF0E080818460808389EF8093B300CB
:10037000E0E7F0E080818260808308951092C500FC
:1003800087E08093C40088E08093C10086E080937A
:08039000C2000895F894FFCFAC
:00000001FF
